{
  "_format": "hh-sol-artifact-1",
  "contractName": "Message",
  "sourceName": "contracts/Message.sol",
  "abi": [
    {
      "anonymous": false,
      "inputs": [
        {
          "indexed": false,
          "internalType": "string",
          "name": "oldMessage",
          "type": "string"
        },
        {
          "indexed": false,
          "internalType": "string",
          "name": "newMessage",
          "type": "string"
        }
      ],
      "name": "MessageUpdated",
      "type": "event"
    },
    {
      "inputs": [],
      "name": "currentMessage",
      "outputs": [
        {
          "internalType": "string",
          "name": "",
          "type": "string"
        }
      ],
      "stateMutability": "view",
      "type": "function"
    },
    {
      "inputs": [
        {
          "internalType": "string",
          "name": "_message",
          "type": "string"
        }
      ],
      "name": "setMessage",
      "outputs": [],
      "stateMutability": "nonpayable",
      "type": "function"
    }
  ],
  "bytecode": "0x60806040526040518060400160405280601081526020017f48656c6c6f2066726f6d205765623321000000000000000000000000000000008152506000908161004891906102ab565b5034801561005557600080fd5b5061037d565b600081519050919050565b7f4e487b7100000000000000000000000000000000000000000000000000000000600052604160045260246000fd5b7f4e487b7100000000000000000000000000000000000000000000000000000000600052602260045260246000fd5b600060028204905060018216806100dc57607f821691505b6020821081036100ef576100ee610095565b5b50919050565b60008190508160005260206000209050919050565b60006020601f8301049050919050565b600082821b905092915050565b6000600883026101577fffffffffffffffffffffffffffffffffffffffffffffffffffffffffffffffff8261011a565b610161868361011a565b95508019841693508086168417925050509392505050565b6000819050919050565b6000819050919050565b60006101a86101a361019e84610179565b610183565b610179565b9050919050565b6000819050919050565b6101c28361018d565b6101d66101ce826101af565b848454610127565b825550505050565b600090565b6101eb6101de565b6101f68184846101b9565b505050565b5b8181101561021a5761020f6000826101e3565b6001810190506101fc565b5050565b601f82111561025f57610230816100f5565b6102398461010a565b81016020851015610248578190505b61025c6102548561010a565b8301826101fb565b50505b505050565b600082821c905092915050565b600061028260001984600802610264565b1980831691505092915050565b600061029b8383610271565b9150826002028217905092915050565b6102b48261005b565b67ffffffffffffffff8111156102cd576102cc610066565b5b6102d782546100c4565b6102e282828561021e565b600060209050601f8311600181146103155760008415610303578287015190505b61030d858261028f565b865550610375565b601f198416610323866100f5565b60005b8281101561034b57848901518255600182019150602085019450602081019050610326565b868310156103685784890151610364601f891682610271565b8355505b6001600288020188555050505b505050505050565b6107778061038c6000396000f3fe608060405234801561001057600080fd5b50600436106100365760003560e01c8063368b87721461003b578063d9203db614610057575b600080fd5b61005560048036038101906100509190610338565b610075565b005b61005f610150565b60405161006c9190610400565b60405180910390f35b600080805461008390610451565b80601f01602080910402602001604051908101604052809291908181526020018280546100af90610451565b80156100fc5780601f106100d1576101008083540402835291602001916100fc565b820191906000526020600020905b8154815290600101906020018083116100df57829003601f168201915b5050505050905081600090816101129190610638565b507f5b4717af615de779c9c12885d202645882ad93995957a99a4a1a145b3ccdbc10818360405161014492919061070a565b60405180910390a15050565b6000805461015d90610451565b80601f016020809104026020016040519081016040528092919081815260200182805461018990610451565b80156101d65780601f106101ab576101008083540402835291602001916101d6565b820191906000526020600020905b8154815290600101906020018083116101b957829003601f168201915b505050505081565b6000604051905090565b600080fd5b600080fd5b600080fd5b600080fd5b6000601f19601f8301169050919050565b7f4e487b7100000000000000000000000000000000000000000000000000000000600052604160045260246000fd5b610245826101fc565b810181811067ffffffffffffffff821117156102645761026361020d565b5b80604052505050565b60006102776101de565b9050610283828261023c565b919050565b600067ffffffffffffffff8211156102a3576102a261020d565b5b6102ac826101fc565b9050602081019050919050565b82818337600083830152505050565b60006102db6102d684610288565b61026d565b9050828152602081018484840111156102f7576102f66101f7565b5b6103028482856102b9565b509392505050565b600082601f83011261031f5761031e6101f2565b5b813561032f8482602086016102c8565b91505092915050565b60006020828403121561034e5761034d6101e8565b5b600082013567ffffffffffffffff81111561036c5761036b6101ed565b5b6103788482850161030a565b91505092915050565b600081519050919050565b600082825260208201905092915050565b60005b838110156103bb5780820151818401526020810190506103a0565b60008484015250505050565b60006103d282610381565b6103dc818561038c565b93506103ec81856020860161039d565b6103f5816101fc565b840191505092915050565b6000602082019050818103600083015261041a81846103c7565b905092915050565b7f4e487b7100000000000000000000000000000000000000000000000000000000600052602260045260246000fd5b6000600282049050600182168061046957607f821691505b60208210810361047c5761047b610422565b5b50919050565b60008190508160005260206000209050919050565b60006020601f8301049050919050565b600082821b905092915050565b6000600883026104e47fffffffffffffffffffffffffffffffffffffffffffffffffffffffffffffffff826104a7565b6104ee86836104a7565b95508019841693508086168417925050509392505050565b6000819050919050565b6000819050919050565b600061053561053061052b84610506565b610510565b610506565b9050919050565b6000819050919050565b61054f8361051a565b61056361055b8261053c565b8484546104b4565b825550505050565b600090565b61057861056b565b610583818484610546565b505050565b5b818110156105a75761059c600082610570565b600181019050610589565b5050565b601f8211156105ec576105bd81610482565b6105c684610497565b810160208510156105d5578190505b6105e96105e185610497565b830182610588565b50505b505050565b600082821c905092915050565b600061060f600019846008026105f1565b1980831691505092915050565b600061062883836105fe565b9150826002028217905092915050565b61064182610381565b67ffffffffffffffff81111561065a5761065961020d565b5b6106648254610451565b61066f8282856105ab565b600060209050601f8311600181146106a25760008415610690578287015190505b61069a858261061c565b865550610702565b601f1984166106b086610482565b60005b828110156106d8578489015182556001820191506020850194506020810190506106b3565b868310156106f557848901516106f1601f8916826105fe565b8355505b6001600288020188555050505b505050505050565b6000604082019050818103600083015261072481856103c7565b9050818103602083015261073881846103c7565b9050939250505056fea2646970667358221220619c17fc553d39492ce2c0744bf1dc1af146bb8e2e31e0ddc3d8bd5b5d1159dc64736f6c634300081c0033",
  "linkReferences": {},
  "deployedLinkReferences": {}
}